{
  "_format": "hh-sol-artifact-1",
  "contractName": "ScaryMovie",
  "sourceName": "contracts/ScaryMovie.sol",
  "abi": [
    {
      "inputs": [],
      "stateMutability": "nonpayable",
      "type": "constructor"
    },
    {
      "anonymous": false,
      "inputs": [
        {
          "indexed": true,
          "internalType": "address",
          "name": "from",
          "type": "address"
        },
        {
          "indexed": false,
          "internalType": "uint256",
          "name": "timestamp",
          "type": "uint256"
        },
        {
          "indexed": false,
          "internalType": "string",
          "name": "message",
          "type": "string"
        }
      ],
      "name": "NewMovie",
      "type": "event"
    },
    {
      "inputs": [
        {
          "internalType": "string",
          "name": "_message",
          "type": "string"
        }
      ],
      "name": "addMovie",
      "outputs": [],
      "stateMutability": "nonpayable",
      "type": "function"
    },
    {
      "inputs": [],
      "name": "getAllMovies",
      "outputs": [
        {
          "components": [
            {
              "internalType": "address",
              "name": "author",
              "type": "address"
            },
            {
              "internalType": "string",
              "name": "message",
              "type": "string"
            },
            {
              "internalType": "uint256",
              "name": "timestamp",
              "type": "uint256"
            }
          ],
          "internalType": "struct ScaryMovie.Movie[]",
          "name": "",
          "type": "tuple[]"
        }
      ],
      "stateMutability": "view",
      "type": "function"
    },
    {
      "inputs": [],
      "name": "getMovieCount",
      "outputs": [
        {
          "internalType": "uint256",
          "name": "count",
          "type": "uint256"
        }
      ],
      "stateMutability": "view",
      "type": "function"
    }
  ],
  "bytecode": "0x608060405234801561001057600080fd5b506100596040518060400160405280601681526020017f496e6974696174696e6720636f6e74726163742e2e2e0000000000000000000081525061005e60201b6104021760201c565b6101e1565b6100fa81604051602401610072919061015f565b6040516020818303038152906040527f41304fac000000000000000000000000000000000000000000000000000000007bffffffffffffffffffffffffffffffffffffffffffffffffffffffff19166020820180517bffffffffffffffffffffffffffffffffffffffffffffffffffffffff83818316178352505050506100fd60201b60201c565b50565b60008151905060006a636f6e736f6c652e6c6f679050602083016000808483855afa5050505050565b600061013182610181565b61013b818561018c565b935061014b81856020860161019d565b610154816101d0565b840191505092915050565b600060208201905081810360008301526101798184610126565b905092915050565b600081519050919050565b600082825260208201905092915050565b60005b838110156101bb5780820151818401526020810190506101a0565b838111156101ca576000848401525b50505050565b6000601f19601f8301169050919050565b610b1880620001f16000396000f3fe608060405234801561001057600080fd5b50600436106100415760003560e01c806372511e4714610046578063e16f006514610062578063ea7f123114610080575b600080fd5b610060600480360381019061005b91906105cf565b61009e565b005b61006a6102a8565b60405161007791906107c8565b60405180910390f35b6100886103f9565b604051610095919061082c565b60405180910390f35b42610384600160003373ffffffffffffffffffffffffffffffffffffffff1673ffffffffffffffffffffffffffffffffffffffff168152602001908152602001600020546100ec919061093e565b1061012c576040517f08c379a00000000000000000000000000000000000000000000000000000000081526004016101239061080c565b60405180910390fd5b42600160003373ffffffffffffffffffffffffffffffffffffffff1673ffffffffffffffffffffffffffffffffffffffff168152602001908152602001600020819055506001600080828254610182919061093e565b92505081905550600260405180606001604052803373ffffffffffffffffffffffffffffffffffffffff16815260200183815260200142815250908060018154018082558091505060019003906000526020600020906003020160009091909190915060008201518160000160006101000a81548173ffffffffffffffffffffffffffffffffffffffff021916908373ffffffffffffffffffffffffffffffffffffffff16021790555060208201518160010190805190602001906102489291906104c4565b506040820151816002015550503373ffffffffffffffffffffffffffffffffffffffff167fca7556bc3c09f99f7ad5958125e4054299d1938f0282a75a455e1c8b84698615428360405161029d929190610847565b60405180910390a250565b60606002805480602002602001604051908101604052809291908181526020016000905b828210156103f057838290600052602060002090600302016040518060600160405290816000820160009054906101000a900473ffffffffffffffffffffffffffffffffffffffff1673ffffffffffffffffffffffffffffffffffffffff1673ffffffffffffffffffffffffffffffffffffffff16815260200160018201805461035590610a12565b80601f016020809104026020016040519081016040528092919081815260200182805461038190610a12565b80156103ce5780601f106103a3576101008083540402835291602001916103ce565b820191906000526020600020905b8154815290600101906020018083116103b157829003601f168201915b50505050508152602001600282015481525050815260200190600101906102cc565b50505050905090565b60008054905090565b6104988160405160240161041691906107ea565b6040516020818303038152906040527f41304fac000000000000000000000000000000000000000000000000000000007bffffffffffffffffffffffffffffffffffffffffffffffffffffffff19166020820180517bffffffffffffffffffffffffffffffffffffffffffffffffffffffff838183161783525050505061049b565b50565b60008151905060006a636f6e736f6c652e6c6f679050602083016000808483855afa5050505050565b8280546104d090610a12565b90600052602060002090601f0160209004810192826104f25760008555610539565b82601f1061050b57805160ff1916838001178555610539565b82800160010185558215610539579182015b8281111561053857825182559160200191906001019061051d565b5b509050610546919061054a565b5090565b5b8082111561056357600081600090555060010161054b565b5090565b600061057a610575846108a8565b610877565b90508281526020810184848401111561059257600080fd5b61059d8482856109d0565b509392505050565b600082601f8301126105b657600080fd5b81356105c6848260208601610567565b91505092915050565b6000602082840312156105e157600080fd5b600082013567ffffffffffffffff8111156105fb57600080fd5b610607848285016105a5565b91505092915050565b600061061c838361075a565b905092915050565b61062d81610994565b82525050565b600061063e826108e8565b610648818561090b565b93508360208202850161065a856108d8565b8060005b8581101561069657848403895281516106778582610610565b9450610682836108fe565b925060208a0199505060018101905061065e565b50829750879550505050505092915050565b60006106b3826108f3565b6106bd818561091c565b93506106cd8185602086016109df565b6106d681610ad1565b840191505092915050565b60006106ec826108f3565b6106f6818561092d565b93506107068185602086016109df565b61070f81610ad1565b840191505092915050565b600061072760088361092d565b91507f576169742031356d0000000000000000000000000000000000000000000000006000830152602082019050919050565b60006060830160008301516107726000860182610624565b506020830151848203602086015261078a82826106a8565b915050604083015161079f60408601826107aa565b508091505092915050565b6107b3816109c6565b82525050565b6107c2816109c6565b82525050565b600060208201905081810360008301526107e28184610633565b905092915050565b6000602082019050818103600083015261080481846106e1565b905092915050565b600060208201905081810360008301526108258161071a565b9050919050565b600060208201905061084160008301846107b9565b92915050565b600060408201905061085c60008301856107b9565b818103602083015261086e81846106e1565b90509392505050565b6000604051905081810181811067ffffffffffffffff8211171561089e5761089d610aa2565b5b8060405250919050565b600067ffffffffffffffff8211156108c3576108c2610aa2565b5b601f19601f8301169050602081019050919050565b6000819050602082019050919050565b600081519050919050565b600081519050919050565b6000602082019050919050565b600082825260208201905092915050565b600082825260208201905092915050565b600082825260208201905092915050565b6000610949826109c6565b9150610954836109c6565b9250827fffffffffffffffffffffffffffffffffffffffffffffffffffffffffffffffff0382111561098957610988610a44565b5b828201905092915050565b600061099f826109a6565b9050919050565b600073ffffffffffffffffffffffffffffffffffffffff82169050919050565b6000819050919050565b82818337600083830152505050565b60005b838110156109fd5780820151818401526020810190506109e2565b83811115610a0c576000848401525b50505050565b60006002820490506001821680610a2a57607f821691505b60208210811415610a3e57610a3d610a73565b5b50919050565b7f4e487b7100000000000000000000000000000000000000000000000000000000600052601160045260246000fd5b7f4e487b7100000000000000000000000000000000000000000000000000000000600052602260045260246000fd5b7f4e487b7100000000000000000000000000000000000000000000000000000000600052604160045260246000fd5b6000601f19601f830116905091905056fea2646970667358221220e22bb9af298a3502b69bfe07a1945e5c86b63644f720ceb2dd9817f307cefe6564736f6c63430008000033",
  "linkReferences": {},
  "deployedLinkReferences": {}
}